:107000005FC0000078C0000076C0000074C00000BF
:1070100072C0000070C000006EC000006CC00000B4
:107020006AC0000068C00000CDC4000064C0000059
:1070300062C0000060C000005EC000005CC00000D4
:107040005AC00000E9C0000056C0000054C0000053
:1070500052C0000050C000004EC000004CC00000F4
:107060004AC0000048C0000046C0000044C0000004
:1070700042C0000040C000003EC000003CC0000014
:107080003AC0000038C0000036C0000034C0000024
:1070900032C0000030C000002EC000002CC0000034
:1070A0002AC0000028C0000026C000004D3E663EF9
:1070B000123F663E123F9E3EC03E123FE03EF23E11
:1070C00011241FBECFEFDAE0DEBFCDBF11E0A0E09C
:1070D000B1E0EEEAFEE702C005900D92A43BB107D5
:1070E000D9F721E0A4EBB1E001C01D92AA3CB207A0
:1070F000E1F762D3DAC684CF84E08093E90080911F
:10710000E80085FD0DC08091E8008B778093E80052
:107110008091E80082FDF3CF8EB38111F9CF02C0D8
:107120008091F100089593E09093E9009091E80038
:1071300095FF0AC08093F1005D9884E690E09093FB
:10714000B9018093B80108959091E8009E779093DB
:10715000E8009091E80090FDEDCF9EB39111F9CF3A
:107160000895F89410926F0010928100109285009B
:107170001092840081E085BF15BE47985D9A289AD9
:107180000C94000008952091BE013091BF012F5F43
:107190003F4F3093BF012093BE01832F37FF02C0C2
:1071A0008EEF831B3327880F90E08217930714F428
:1071B00047980895479A089584B7877F84BF0FB68C
:1071C000F894A89580916000886180936000109287
:1071D00060000FBE90E880E00FB6F89490936100D5
:1071E000809361000FBE81E085BF82E085BF3F9A3A
:1071F000209A559AE1E6F0E09083108247985D9AD4
:10720000289A109289009AEF9093880080936F00DB
:1072100083E080938100BEC31F920F920FB60F923E
:1072200011242F938F939F93EF93FF9310928500D8
:10723000109284008091B8019091B901009741F0BB
:1072400001979093B9018093B801892B09F45D9A55
:107250008091B6019091B701009741F0019790930A
:10726000B7018093B601892B09F4289AE0E0F0E099
:1072700085919491019649F08091B4019091B50166
:1072800001969093B5018093B401FF91EF919F9186
:107290008F912F910F900FBE0F901F90189542E085
:1072A00061EC82E00CD342E161E883E008D342E183
:1072B00060E884E004C38091C201982F9F779132E7
:1072C00039F59091C301903291F0913209F5813AEC
:1072D000F9F48091E800877F8093E80067E070E030
:1072E00083E091E020D48091E8008B770FC0813259
:1072F00079F48091E800877F8093E80067E070E090
:1073000083E091E068D48091E8008E778093E80074
:1073100008954F925F926F927F928F929F92AF9259
:10732000BF92CF92DF92EF92FF920F931F93CF9372
:10733000DF9384E08093E9008091E80082FF2BC214
:10734000289884E690E09093B7018093B601D4DE4C
:10735000C82F853481F48CE49DE19093B50180932E
:10736000B40107B600FCFDCFF999FECF81E180930F
:107370005700E89503C0843521F4BEDE8DE0D3DEEE
:10738000E1C18C34D9F38035C9F3843721F484E426
:10739000CADE80E0F4CF813611F489E5F0CF813484
:1073A00091F4AADEC82FA8DE2C2F30E0322F22273E
:1073B000330F90E0880F991F822B932B092E000C1E
:1073C000AA0BBB0B93C1803711F483E5D8CF83356B
:1073D00049F4CAEAD1E08991A6DE21E0C13BD20797
:1073E000D1F7B0C1863521F481E39DDE80E3C7CFBC
:1073F000833731F487E897DE85E995DE8EE1BFCFEC
:107400008536B9F4E0E0F0E083E095E08093570042
:10741000E89507B600FCFDCF90935700E89507B6B6
:1074200000FCFDCFE058FF4FE11540E7F40771F78E
:10743000A5CF823719F4E1E0F0E00EC0863419F4EC
:10744000E0E0F0E009C08E3419F4E3E0F0E004C0BD
:10745000813539F4E2E0F0E089E0809357008491CF
:107460008ECF823631F489E55EDE80E05CDE80E836
:1074700086CF823419F0873609F0D0C01092B5015A
:107480001092B40139DE082F37DED82F35DE182FE1
:107490008BEB810F823010F08FE371CF8D2F90E056
:1074A000902B10926F00C73609F042C021E1209363
:1074B0005700E895EC01B12C01E0209709F4AAC02F
:1074C000C090BA01D090BB01E090BC01F090BD012A
:1074D0001634B9F4EB2DF0E0EC29FD29849123DE7C
:1074E000BB2069F052E0C50ED11CE11CF11CC0921A
:1074F000BA01D092BB01E092BC01F092BD01B0266E
:1075000015C0D701C601B695A79597958795B7D4AD
:107510000ADE82E0C80ED11CE11CF11CC092BA0147
:10752000D092BB01E092BC01F092BD012197C5CF82
:107530008090BA019090BB01A090BC01B090BD01B9
:10754000163441F423E0F40120935700E89507B680
:1075500000FCFDCFE12CF12CEC0101E0209709F4B7
:107560004DC0163439F5FF2009F14090BA01509012
:10757000BB016090BC017090BD01BEDD2E2D30E0DE
:10758000A901582BF2010A0100935700E895112434
:10759000F2E04F0E511C611C711C4092BA015092D6
:1075A000BB016092BC017092BD0102C0A5DDE82E56
:1075B000F02622C0A1DD682F8091BA019091BB0115
:1075C000A091BC01B091BD01B695A79597958795FF
:1075D0005ED48091BA019091BB01A091BC01B091A1
:1075E000BD010296A11DB11D8093BA019093BB010C
:1075F000A093BC01B093BD012197B0CF163441F4E4
:1076000085E0F40180935700E89507B600FCFDCFB4
:107610008DE089DD82E080936F0094C0833471F443
:10762000C091BA01D091BB0167DD90E021E0FE017D
:107630000C0120935700E8951124A0CE833601F564
:10764000C090BA01D090BB01E090BC01F090BD01A8
:1076500053DDF601E16090E021E00C01209357003A
:10766000E8951124F2E0CF0ED11CE11CF11CC09270
:10767000BA01D092BB01E092BC01F092BD017ECE76
:107680008D3661F4E091BA01F091BB0185E0809301
:107690005700E89507B600FCFDCF70CE823551F457
:1076A000E091BA01F091BB01C591D4918D2F3BDDE2
:1076B0008C2F65CE843419F51FDD682F8091BA01B7
:1076C0009091BB01A091BC01B091BD01B695A79569
:1076D00097958795DCD38091BA019091BB01A091D9
:1076E000BC01B091BD010296A11DB11D8093BA01EC
:1076F0009093BB01A093BC01B093BD013FCE8436F3
:10770000F1F4C090BA01D090BB01E090BC01F090C0
:10771000BD01D701C601B695A79597958795AFD3BB
:1077200002DD22E0C20ED11CE11CF11CC092BA01A4
:10773000D092BB01E092BC01F092BD0103C08B313D
:1077400009F0AACE83E08093E9009091E80080914F
:10775000E8008E778093E80095FD11C08091E800E5
:1077600080FD04C08EB38111F9CF15C08091E8006F
:107770008E778093E80003C08EB3882361F08091F8
:10778000E80080FFF9CF84E08093E9008091E80071
:107790008B778093E800DF91CF911F910F91FF903D
:1077A000EF90DF90CF90BF90AF909F908F907F90A1
:1077B0006F905F904F9008952091000830910108DC
:1077C000109201081092000884B714BE0FB6F89406
:1077D000A89590916000986190936000109260006D
:1077E0000FBE81FD1AC080FF09C0E0E0F0E04591C6
:1077F00054914F3F5F4F11F0B4DC0FC083FF0DC0B9
:1078000080910001909101012817390731F0E0E0E3
:10781000F0E085919491019679F7CEDC78941092FE
:10782000B5011092B40180910201882369F071DDE5
:107830000FD38091B4019091B50181349F4110F034
:1078400010920201A0DCEFCF8091E0008160809374
:10785000E00087DC80E090E00895292F30E02230BE
:10786000310559F02330310569F021303105F9F443
:1078700082E190E028E931E01EC08EE390E02AE545
:1078800031E019C0882349F0813061F0823079F409
:107890008AE290E02AE031E00EC084E090E026E544
:1078A00031E009C08EE190E026E331E004C080E0E1
:1078B00090E020E030E0FA01318320830895809346
:1078C000E900EBEEF0E0808181608083EDEEF0E096
:1078D00010826093EC0040838091EE00881F88271F
:1078E000881F08958091C20187FF0FC08091E80032
:1078F00082FD04C08EB38111F9CF10C08091E800E1
:107900008B770AC08EB3882349F08091E80080FF0E
:10791000F9CF8091E8008E778093E80008950F9367
:107920001F93CF93DF9341D048D0C8EDD0E088813A
:107930008F77888388818068888388818F7D88831A
:1079400019BC1EBA1092C00100EE10E0F80180814F
:107950008B7F808388818160888342E060E080E063
:10796000AEDFE1EEF0E080818E7F8083E2EEF0E03A
:10797000808181608083808188608083F80180813C
:107980008E7F8083888180618883DF91CF911F9172
:107990000F910895E7EDF0E08081816080838AE4B3
:1079A00082BF81E08093C101BACFE8EDF0E0808131
:1079B0008E7F80831092E20008951092DA00109278
:1079C000E10008951F920F920FB60F9211242F938A
:1079D0003F934F935F936F937F938F939F93AF9357
:1079E000BF93EF93FF938091DA0080FF1BC08091DB
:1079F000D80080FF17C08091DA008E7F8093DA0074
:107A00008091D90080FF0BC080E189BD82E189BDF2
:107A100009B400FEFDCF81E08EBB19D203C019BCB2
:107A20001EBA15D28091E10080FF17C08091E2005C
:107A300080FF13C08091E2008E7F8093E2008091EE
:107A4000E20080618093E2008091D80080628093A0
:107A5000D80019BC85E08EBBFAD18091E10084FF8B
:107A60002CC08091E20084FF28C080E189BD82E1C2
:107A700089BD09B400FEFDCF8091D8008F7D809331
:107A8000D8008091E1008F7E8093E1008091E20038
:107A90008F7E8093E2008091E20081608093E2001B
:107AA0008091C001811106C08091E30087FD02C072
:107AB00081E001C084E08EBBCAD18091E10083FFE8
:107AC00021C08091E20083FF1DC08091E100877F8B
:107AD0008093E10082E08EBB1092C0018091E100B2
:107AE0008E7F8093E1008091E2008E7F8093E200A0
:107AF0008091E20080618093E20042E060E080E0FB
:107B0000DEDEA5D1FF91EF91BF91AF919F918F9153
:107B10007F916F915F914F913F912F910F900FBE89
:107B20000F901F9018952091C8013091C901261718
:107B3000370748F06115710539F42091E8002E7778
:107B40002093E80001C0B901FC0120E06115710536
:107B500071F18EB38823D9F18530D9F18091E80095
:107B600083FD33C08091E80082FD29C08091E80048
:107B700080FFECCF2091F3008091F20090E0922BF7
:107B80006115710551F08830910538F421912093E9
:107B9000F100615071090196F3CF21E0089709F0D7
:107BA00020E08091E8008E778093E800CFCF21110C
:107BB000D0CF05C08EB3882351F0853051F080912D
:107BC000E80082FFF7CF80E0089581E0089582E029
:107BD000089583E008956115710529F42091E80066
:107BE0002B772093E800FC016115710531F18EB30C
:107BF000882359F1853059F18091E80083FD23C035
:107C00008091E80082FFF0CF2091F3008091F20094
:107C100090E0922B892B31F08091F100819361509B
:107C2000710991F78091E8008B778093E800DCCFB1
:107C30008EB3882351F0853051F08091E80080FFA9
:107C4000F7CF80E0089581E0089582E0089583E011
:107C500008950F931F93CF93DF9300D0CDB7DEB776
:107C6000E2ECF1E08AEC91E02091F10021938E1793
:107C70009F07D1F720DB8091E80083FFD3C080917C
:107C8000C2019091C301492F50E04A30510508F0DC
:107C9000C9C0FA01EA5AF74CECC0823809F0C2C0F8
:107CA0008091C60187708093E9008091EB0010926B
:107CB000E9009091E800977F9093E80085FB882782
:107CC00080F98093F1001092F10085C0282F2D7F5C
:107CD00009F0A8C0823009F0A5C08091C4018111CB
:107CE00027C08091C601877009F49CC08093E90089
:107CF0002091EB0020FF1CC0933021F48091EB0019
:107D0000806214C09091EB0090619093EB0021E0B1
:107D100030E0A90102C0440F551F8A95E2F7409355
:107D2000EA001092EA008091EB0088608093EB00FB
:107D30001092E9008091E800877F50C0811172C0E5
:107D40001091C4011F770FB7F8948091E800877FE6
:107D50008093E800C7DD8091E80080FFFCCF809130
:107D6000E3008078812B8093E30080688093E300B8
:107D7000111102C082E001C083E08EBB0FBF52C070
:107D80008058823008F04EC0AE014F5F5F4F609167
:107D9000C6018091C4019091C5015FDDBC01892BB2
:107DA00009F440C09091E800977F9093E8008981A2
:107DB0009A81B9DE8091E8008B778093E80032C029
:107DC000803881F58091E800877F8093E80080917A
:107DD000C0018093F1008091E8008E778093E800E5
:107DE00081DD20C081111EC08091C4019091C50128
:107DF00099270297BCF48091E800877F8093E80080
:107E00008091C4018093C0016DDD8091C00181111A
:107E100006C08091E30087FD02C081E001C084E0DC
:107E20008EBB3DDA8091E80083FF0AC08091EB00B1
:107E300080628093EB008091E800877F8093E80068
:107E40000F900F90DF91CF911F910F91089508959A
:107E5000CF938EB3882359F0C091E900C770109278
:107E6000E9008091E80083FDF4DEC093E900CF9142
:107E70000895EE0FFF1F0590F491E02D0994F999F4
:107E8000FECF92BD81BDF89A992780B50895262F1F
:107E9000F999FECF1FBA92BD81BD20BD0FB6F894EF
:0E7EA000FA9AF99A0FBE01960895F894FFCF52
:107EAE00777701000000000000082A0343006C00F1
:107EBE0065007600200053006F00660074007700A6
:107ECE0061007200650020004400650073006900C7
:107EDE0067006E0000001E03500072006F0020004D
:107EEE004D006900630072006F00200035005600DF
:107EFE002000200000000403090409023E000201D4
:107F0E000080320904000001020201000524001065
:107F1E00010424020405240600010705820308005B
:107F2E00FF09040100020A00000007050402100008
:107F3E000107058302100001120110010200000862
:107F4E008F0E059201000201000143415445524932
:047F5E004E41000090
:040000030000700089
:00000001FF
